{
  "_format": "hh-sol-artifact-1",
  "contractName": "Token",
  "sourceName": "contracts/Token.sol",
  "abi": [
    {
      "inputs": [
        {
          "internalType": "address",
          "name": "_addr",
          "type": "address"
        }
      ],
      "stateMutability": "nonpayable",
      "type": "constructor"
    },
    {
      "anonymous": false,
      "inputs": [
        {
          "indexed": true,
          "internalType": "address",
          "name": "owner",
          "type": "address"
        },
        {
          "indexed": true,
          "internalType": "address",
          "name": "approved",
          "type": "address"
        },
        {
          "indexed": true,
          "internalType": "uint256",
          "name": "tokenId",
          "type": "uint256"
        }
      ],
      "name": "Approval",
      "type": "event"
    },
    {
      "anonymous": false,
      "inputs": [
        {
          "indexed": true,
          "internalType": "address",
          "name": "owner",
          "type": "address"
        },
        {
          "indexed": true,
          "internalType": "address",
          "name": "operator",
          "type": "address"
        },
        {
          "indexed": false,
          "internalType": "bool",
          "name": "approved",
          "type": "bool"
        }
      ],
      "name": "ApprovalForAll",
      "type": "event"
    },
    {
      "anonymous": false,
      "inputs": [
        {
          "indexed": true,
          "internalType": "address",
          "name": "previousOwner",
          "type": "address"
        },
        {
          "indexed": true,
          "internalType": "address",
          "name": "newOwner",
          "type": "address"
        }
      ],
      "name": "OwnershipTransferred",
      "type": "event"
    },
    {
      "anonymous": false,
      "inputs": [
        {
          "indexed": true,
          "internalType": "address",
          "name": "from",
          "type": "address"
        },
        {
          "indexed": true,
          "internalType": "address",
          "name": "to",
          "type": "address"
        },
        {
          "indexed": true,
          "internalType": "uint256",
          "name": "tokenId",
          "type": "uint256"
        }
      ],
      "name": "Transfer",
      "type": "event"
    },
    {
      "inputs": [
        {
          "internalType": "address",
          "name": "to",
          "type": "address"
        },
        {
          "internalType": "uint256",
          "name": "tokenId",
          "type": "uint256"
        }
      ],
      "name": "approve",
      "outputs": [],
      "stateMutability": "nonpayable",
      "type": "function"
    },
    {
      "inputs": [
        {
          "internalType": "address",
          "name": "owner",
          "type": "address"
        }
      ],
      "name": "balanceOf",
      "outputs": [
        {
          "internalType": "uint256",
          "name": "",
          "type": "uint256"
        }
      ],
      "stateMutability": "view",
      "type": "function"
    },
    {
      "inputs": [
        {
          "internalType": "uint256",
          "name": "tokenId",
          "type": "uint256"
        }
      ],
      "name": "burn",
      "outputs": [],
      "stateMutability": "nonpayable",
      "type": "function"
    },
    {
      "inputs": [
        {
          "internalType": "uint256",
          "name": "tokenId",
          "type": "uint256"
        }
      ],
      "name": "getApproved",
      "outputs": [
        {
          "internalType": "address",
          "name": "",
          "type": "address"
        }
      ],
      "stateMutability": "view",
      "type": "function"
    },
    {
      "inputs": [
        {
          "internalType": "address",
          "name": "owner",
          "type": "address"
        },
        {
          "internalType": "address",
          "name": "operator",
          "type": "address"
        }
      ],
      "name": "isApprovedForAll",
      "outputs": [
        {
          "internalType": "bool",
          "name": "",
          "type": "bool"
        }
      ],
      "stateMutability": "view",
      "type": "function"
    },
    {
      "inputs": [],
      "name": "marketContract",
      "outputs": [
        {
          "internalType": "address",
          "name": "",
          "type": "address"
        }
      ],
      "stateMutability": "view",
      "type": "function"
    },
    {
      "inputs": [],
      "name": "name",
      "outputs": [
        {
          "internalType": "string",
          "name": "",
          "type": "string"
        }
      ],
      "stateMutability": "view",
      "type": "function"
    },
    {
      "inputs": [],
      "name": "owner",
      "outputs": [
        {
          "internalType": "address",
          "name": "",
          "type": "address"
        }
      ],
      "stateMutability": "view",
      "type": "function"
    },
    {
      "inputs": [
        {
          "internalType": "uint256",
          "name": "tokenId",
          "type": "uint256"
        }
      ],
      "name": "ownerOf",
      "outputs": [
        {
          "internalType": "address",
          "name": "",
          "type": "address"
        }
      ],
      "stateMutability": "view",
      "type": "function"
    },
    {
      "inputs": [],
      "name": "renounceOwnership",
      "outputs": [],
      "stateMutability": "nonpayable",
      "type": "function"
    },
    {
      "inputs": [
        {
          "internalType": "address",
          "name": "to",
          "type": "address"
        },
        {
          "internalType": "uint256",
          "name": "tokenId",
          "type": "uint256"
        },
        {
          "internalType": "string",
          "name": "uri",
          "type": "string"
        }
      ],
      "name": "safeMint",
      "outputs": [],
      "stateMutability": "nonpayable",
      "type": "function"
    },
    {
      "inputs": [
        {
          "internalType": "address",
          "name": "from",
          "type": "address"
        },
        {
          "internalType": "address",
          "name": "to",
          "type": "address"
        },
        {
          "internalType": "uint256",
          "name": "tokenId",
          "type": "uint256"
        }
      ],
      "name": "safeTransferFrom",
      "outputs": [],
      "stateMutability": "nonpayable",
      "type": "function"
    },
    {
      "inputs": [
        {
          "internalType": "address",
          "name": "from",
          "type": "address"
        },
        {
          "internalType": "address",
          "name": "to",
          "type": "address"
        },
        {
          "internalType": "uint256",
          "name": "tokenId",
          "type": "uint256"
        },
        {
          "internalType": "bytes",
          "name": "data",
          "type": "bytes"
        }
      ],
      "name": "safeTransferFrom",
      "outputs": [],
      "stateMutability": "nonpayable",
      "type": "function"
    },
    {
      "inputs": [
        {
          "internalType": "address",
          "name": "operator",
          "type": "address"
        },
        {
          "internalType": "bool",
          "name": "approved",
          "type": "bool"
        }
      ],
      "name": "setApprovalForAll",
      "outputs": [],
      "stateMutability": "nonpayable",
      "type": "function"
    },
    {
      "inputs": [
        {
          "internalType": "address",
          "name": "_addr",
          "type": "address"
        }
      ],
      "name": "setMarketContractAddress",
      "outputs": [],
      "stateMutability": "nonpayable",
      "type": "function"
    },
    {
      "inputs": [
        {
          "internalType": "bytes4",
          "name": "interfaceId",
          "type": "bytes4"
        }
      ],
      "name": "supportsInterface",
      "outputs": [
        {
          "internalType": "bool",
          "name": "",
          "type": "bool"
        }
      ],
      "stateMutability": "view",
      "type": "function"
    },
    {
      "inputs": [],
      "name": "symbol",
      "outputs": [
        {
          "internalType": "string",
          "name": "",
          "type": "string"
        }
      ],
      "stateMutability": "view",
      "type": "function"
    },
    {
      "inputs": [
        {
          "internalType": "uint256",
          "name": "tokenId",
          "type": "uint256"
        }
      ],
      "name": "tokenURI",
      "outputs": [
        {
          "internalType": "string",
          "name": "",
          "type": "string"
        }
      ],
      "stateMutability": "view",
      "type": "function"
    },
    {
      "inputs": [
        {
          "internalType": "address",
          "name": "from",
          "type": "address"
        },
        {
          "internalType": "address",
          "name": "to",
          "type": "address"
        },
        {
          "internalType": "uint256",
          "name": "tokenId",
          "type": "uint256"
        }
      ],
      "name": "transferFrom",
      "outputs": [],
      "stateMutability": "nonpayable",
      "type": "function"
    },
    {
      "inputs": [
        {
          "internalType": "address",
          "name": "newOwner",
          "type": "address"
        }
      ],
      "name": "transferOwnership",
      "outputs": [],
      "stateMutability": "nonpayable",
      "type": "function"
    }
  ],
  "bytecode": "0x60806040523480156200001157600080fd5b5060405162003a0b38038062003a0b833981810160405281019062000037919062000426565b6040518060400160405280600681526020017f5469636b657400000000000000000000000000000000000000000000000000008152506040518060400160405280600681526020017f5449434b455400000000000000000000000000000000000000000000000000008152508160009080519060200190620000bb9291906200035f565b508060019080519060200190620000d49291906200035f565b505050620000f7620000eb6200010f60201b60201c565b6200011760201b60201c565b6200010881620001dd60201b60201c565b506200062b565b600033905090565b6000600760009054906101000a900473ffffffffffffffffffffffffffffffffffffffff16905081600760006101000a81548173ffffffffffffffffffffffffffffffffffffffff021916908373ffffffffffffffffffffffffffffffffffffffff1602179055508173ffffffffffffffffffffffffffffffffffffffff168173ffffffffffffffffffffffffffffffffffffffff167f8be0079c531659141344cd1fd0a4f28419497f9722a3daafe3b4186f6b6457e060405160405180910390a35050565b620001ed620002a460201b60201c565b600073ffffffffffffffffffffffffffffffffffffffff168173ffffffffffffffffffffffffffffffffffffffff16141562000260576040517f08c379a00000000000000000000000000000000000000000000000000000000081526004016200025790620004a6565b60405180910390fd5b80600860006101000a81548173ffffffffffffffffffffffffffffffffffffffff021916908373ffffffffffffffffffffffffffffffffffffffff16021790555050565b620002b46200010f60201b60201c565b73ffffffffffffffffffffffffffffffffffffffff16620002da6200033560201b60201c565b73ffffffffffffffffffffffffffffffffffffffff161462000333576040517f08c379a00000000000000000000000000000000000000000000000000000000081526004016200032a90620004c8565b60405180910390fd5b565b6000600760009054906101000a900473ffffffffffffffffffffffffffffffffffffffff16905090565b8280546200036d906200052f565b90600052602060002090601f016020900481019282620003915760008555620003dd565b82601f10620003ac57805160ff1916838001178555620003dd565b82800160010185558215620003dd579182015b82811115620003dc578251825591602001919060010190620003bf565b5b509050620003ec9190620003f0565b5090565b5b808211156200040b576000816000905550600101620003f1565b5090565b600081519050620004208162000611565b92915050565b6000602082840312156200043f576200043e62000594565b5b60006200044f848285016200040f565b91505092915050565b600062000467602f83620004ea565b9150620004748262000599565b604082019050919050565b60006200048e602083620004ea565b91506200049b82620005e8565b602082019050919050565b60006020820190508181036000830152620004c18162000458565b9050919050565b60006020820190508181036000830152620004e3816200047f565b9050919050565b600082825260208201905092915050565b600062000508826200050f565b9050919050565b600073ffffffffffffffffffffffffffffffffffffffff82169050919050565b600060028204905060018216806200054857607f821691505b602082108114156200055f576200055e62000565565b5b50919050565b7f4e487b7100000000000000000000000000000000000000000000000000000000600052602260045260246000fd5b600080fd5b7f43616e6e6f7420736574206d61726b657420636f6e747261637420616464726560008201527f737320746f206164647265737320300000000000000000000000000000000000602082015250565b7f4f776e61626c653a2063616c6c6572206973206e6f7420746865206f776e6572600082015250565b6200061c81620004fb565b81146200062857600080fd5b50565b6133d0806200063b6000396000f3fe608060405234801561001057600080fd5b506004361061012c5760003560e01c80638da5cb5b116100ad578063c73358de11610071578063c73358de1461031b578063c87b56dd14610337578063cd279c7c14610367578063e985e9c514610383578063f2fde38b146103b35761012c565b80638da5cb5b1461028957806395d89b41146102a7578063a1794bcd146102c5578063a22cb465146102e3578063b88d4fde146102ff5761012c565b806342842e0e116100f457806342842e0e146101e757806342966c68146102035780636352211e1461021f57806370a082311461024f578063715018a61461027f5761012c565b806301ffc9a71461013157806306fdde0314610161578063081812fc1461017f578063095ea7b3146101af57806323b872dd146101cb575b600080fd5b61014b6004803603810190610146919061240e565b6103cf565b6040516101589190612843565b60405180910390f35b6101696104b1565b604051610176919061285e565b60405180910390f35b61019960048036038101906101949190612468565b610543565b6040516101a691906127dc565b60405180910390f35b6101c960048036038101906101c4919061235f565b610589565b005b6101e560048036038101906101e09190612249565b6106a1565b005b61020160048036038101906101fc9190612249565b610701565b005b61021d60048036038101906102189190612468565b610721565b005b61023960048036038101906102349190612468565b61077d565b60405161024691906127dc565b60405180910390f35b610269600480360381019061026491906121dc565b61082f565b6040516102769190612aa0565b60405180910390f35b6102876108e7565b005b6102916108fb565b60405161029e91906127dc565b60405180910390f35b6102af610925565b6040516102bc919061285e565b60405180910390f35b6102cd6109b7565b6040516102da91906127dc565b60405180910390f35b6102fd60048036038101906102f8919061231f565b6109dd565b005b6103196004803603810190610314919061229c565b6109f3565b005b610335600480360381019061033091906121dc565b610a55565b005b610351600480360381019061034c9190612468565b610b11565b60405161035e919061285e565b60405180910390f35b610381600480360381019061037c919061239f565b610b23565b005b61039d60048036038101906103989190612209565b610c09565b6040516103aa9190612843565b60405180910390f35b6103cd60048036038101906103c891906121dc565b610c9d565b005b60007f80ac58cd000000000000000000000000000000000000000000000000000000007bffffffffffffffffffffffffffffffffffffffffffffffffffffffff1916827bffffffffffffffffffffffffffffffffffffffffffffffffffffffff1916148061049a57507f5b5e139f000000000000000000000000000000000000000000000000000000007bffffffffffffffffffffffffffffffffffffffffffffffffffffffff1916827bffffffffffffffffffffffffffffffffffffffffffffffffffffffff1916145b806104aa57506104a982610d21565b5b9050919050565b6060600080546104c090612cf6565b80601f01602080910402602001604051908101604052809291908181526020018280546104ec90612cf6565b80156105395780601f1061050e57610100808354040283529160200191610539565b820191906000526020600020905b81548152906001019060200180831161051c57829003601f168201915b5050505050905090565b600061054e82610d8b565b6004600083815260200190815260200160002060009054906101000a900473ffffffffffffffffffffffffffffffffffffffff169050919050565b60006105948261077d565b90508073ffffffffffffffffffffffffffffffffffffffff168373ffffffffffffffffffffffffffffffffffffffff161415610605576040517f08c379a00000000000000000000000000000000000000000000000000000000081526004016105fc90612a40565b60405180910390fd5b8073ffffffffffffffffffffffffffffffffffffffff16610624610dd6565b73ffffffffffffffffffffffffffffffffffffffff16148061065357506106528161064d610dd6565b610c09565b5b610692576040517f08c379a0000000000000000000000000000000000000000000000000000000008152600401610689906129a0565b60405180910390fd5b61069c8383610dde565b505050565b6106b26106ac610dd6565b82610e97565b6106f1576040517f08c379a00000000000000000000000000000000000000000000000000000000081526004016106e890612a80565b60405180910390fd5b6106fc838383610f2c565b505050565b61071c838383604051806020016040528060008152506109f3565b505050565b61073261072c610dd6565b82610e97565b610771576040517f08c379a000000000000000000000000000000000000000000000000000000000815260040161076890612a60565b60405180910390fd5b61077a81611009565b50565b6000806002600084815260200190815260200160002060009054906101000a900473ffffffffffffffffffffffffffffffffffffffff169050600073ffffffffffffffffffffffffffffffffffffffff168173ffffffffffffffffffffffffffffffffffffffff161415610826576040517f08c379a000000000000000000000000000000000000000000000000000000000815260040161081d90612a20565b60405180910390fd5b80915050919050565b60008073ffffffffffffffffffffffffffffffffffffffff168273ffffffffffffffffffffffffffffffffffffffff1614156108a0576040517f08c379a000000000000000000000000000000000000000000000000000000000815260040161089790612960565b60405180910390fd5b600360008373ffffffffffffffffffffffffffffffffffffffff1673ffffffffffffffffffffffffffffffffffffffff168152602001908152602001600020549050919050565b6108ef6110e2565b6108f96000611160565b565b6000600760009054906101000a900473ffffffffffffffffffffffffffffffffffffffff16905090565b60606001805461093490612cf6565b80601f016020809104026020016040519081016040528092919081815260200182805461096090612cf6565b80156109ad5780601f10610982576101008083540402835291602001916109ad565b820191906000526020600020905b81548152906001019060200180831161099057829003601f168201915b5050505050905090565b600860009054906101000a900473ffffffffffffffffffffffffffffffffffffffff1681565b6109ef6109e8610dd6565b8383611226565b5050565b610a046109fe610dd6565b83610e97565b610a43576040517f08c379a0000000000000000000000000000000000000000000000000000000008152600401610a3a90612a80565b60405180910390fd5b610a4f84848484611393565b50505050565b610a5d6110e2565b600073ffffffffffffffffffffffffffffffffffffffff168173ffffffffffffffffffffffffffffffffffffffff161415610acd576040517f08c379a0000000000000000000000000000000000000000000000000000000008152600401610ac4906128e0565b60405180910390fd5b80600860006101000a81548173ffffffffffffffffffffffffffffffffffffffff021916908373ffffffffffffffffffffffffffffffffffffffff16021790555050565b6060610b1c826113ef565b9050919050565b600860009054906101000a900473ffffffffffffffffffffffffffffffffffffffff1673ffffffffffffffffffffffffffffffffffffffff163373ffffffffffffffffffffffffffffffffffffffff161480610bb15750610b826108fb565b73ffffffffffffffffffffffffffffffffffffffff163373ffffffffffffffffffffffffffffffffffffffff16145b610bf0576040517f08c379a0000000000000000000000000000000000000000000000000000000008152600401610be790612a00565b60405180910390fd5b610bfa8383611502565b610c048282611520565b505050565b6000600560008473ffffffffffffffffffffffffffffffffffffffff1673ffffffffffffffffffffffffffffffffffffffff16815260200190815260200160002060008373ffffffffffffffffffffffffffffffffffffffff1673ffffffffffffffffffffffffffffffffffffffff16815260200190815260200160002060009054906101000a900460ff16905092915050565b610ca56110e2565b600073ffffffffffffffffffffffffffffffffffffffff168173ffffffffffffffffffffffffffffffffffffffff161415610d15576040517f08c379a0000000000000000000000000000000000000000000000000000000008152600401610d0c906128a0565b60405180910390fd5b610d1e81611160565b50565b60007f01ffc9a7000000000000000000000000000000000000000000000000000000007bffffffffffffffffffffffffffffffffffffffffffffffffffffffff1916827bffffffffffffffffffffffffffffffffffffffffffffffffffffffff1916149050919050565b610d9481611594565b610dd3576040517f08c379a0000000000000000000000000000000000000000000000000000000008152600401610dca90612a20565b60405180910390fd5b50565b600033905090565b816004600083815260200190815260200160002060006101000a81548173ffffffffffffffffffffffffffffffffffffffff021916908373ffffffffffffffffffffffffffffffffffffffff160217905550808273ffffffffffffffffffffffffffffffffffffffff16610e518361077d565b73ffffffffffffffffffffffffffffffffffffffff167f8c5be1e5ebec7d5bd14f71427d1e84f3dd0314c0f7b2291e5b200ac8c7c3b92560405160405180910390a45050565b600080610ea38361077d565b90508073ffffffffffffffffffffffffffffffffffffffff168473ffffffffffffffffffffffffffffffffffffffff161480610ee55750610ee48185610c09565b5b80610f2357508373ffffffffffffffffffffffffffffffffffffffff16610f0b84610543565b73ffffffffffffffffffffffffffffffffffffffff16145b91505092915050565b600860009054906101000a900473ffffffffffffffffffffffffffffffffffffffff1673ffffffffffffffffffffffffffffffffffffffff163373ffffffffffffffffffffffffffffffffffffffff161480610fba5750610f8b6108fb565b73ffffffffffffffffffffffffffffffffffffffff163373ffffffffffffffffffffffffffffffffffffffff16145b610ff9576040517f08c379a0000000000000000000000000000000000000000000000000000000008152600401610ff090612a00565b60405180910390fd5b611004838383611600565b505050565b600860009054906101000a900473ffffffffffffffffffffffffffffffffffffffff1673ffffffffffffffffffffffffffffffffffffffff163373ffffffffffffffffffffffffffffffffffffffff16148061109757506110686108fb565b73ffffffffffffffffffffffffffffffffffffffff163373ffffffffffffffffffffffffffffffffffffffff16145b6110d6576040517f08c379a00000000000000000000000000000000000000000000000000000000081526004016110cd90612a00565b60405180910390fd5b6110df81611867565b50565b6110ea610dd6565b73ffffffffffffffffffffffffffffffffffffffff166111086108fb565b73ffffffffffffffffffffffffffffffffffffffff161461115e576040517f08c379a0000000000000000000000000000000000000000000000000000000008152600401611155906129e0565b60405180910390fd5b565b6000600760009054906101000a900473ffffffffffffffffffffffffffffffffffffffff16905081600760006101000a81548173ffffffffffffffffffffffffffffffffffffffff021916908373ffffffffffffffffffffffffffffffffffffffff1602179055508173ffffffffffffffffffffffffffffffffffffffff168173ffffffffffffffffffffffffffffffffffffffff167f8be0079c531659141344cd1fd0a4f28419497f9722a3daafe3b4186f6b6457e060405160405180910390a35050565b8173ffffffffffffffffffffffffffffffffffffffff168373ffffffffffffffffffffffffffffffffffffffff161415611295576040517f08c379a000000000000000000000000000000000000000000000000000000000815260040161128c90612940565b60405180910390fd5b80600560008573ffffffffffffffffffffffffffffffffffffffff1673ffffffffffffffffffffffffffffffffffffffff16815260200190815260200160002060008473ffffffffffffffffffffffffffffffffffffffff1673ffffffffffffffffffffffffffffffffffffffff16815260200190815260200160002060006101000a81548160ff0219169083151502179055508173ffffffffffffffffffffffffffffffffffffffff168373ffffffffffffffffffffffffffffffffffffffff167f17307eab39ab6107e8899845ad3d59bd9653f200f220920489ca2b5937696c31836040516113869190612843565b60405180910390a3505050565b61139e848484610f2c565b6113aa848484846118ba565b6113e9576040517f08c379a00000000000000000000000000000000000000000000000000000000081526004016113e090612880565b60405180910390fd5b50505050565b60606113fa82610d8b565b600060066000848152602001908152602001600020805461141a90612cf6565b80601f016020809104026020016040519081016040528092919081815260200182805461144690612cf6565b80156114935780601f1061146857610100808354040283529160200191611493565b820191906000526020600020905b81548152906001019060200180831161147657829003601f168201915b5050505050905060006114a4611a51565b90506000815114156114ba5781925050506114fd565b6000825111156114ef5780826040516020016114d79291906127b8565b604051602081830303815290604052925050506114fd565b6114f884611a68565b925050505b919050565b61151c828260405180602001604052806000815250611ad0565b5050565b61152982611594565b611568576040517f08c379a000000000000000000000000000000000000000000000000000000000815260040161155f90612980565b60405180910390fd5b8060066000848152602001908152602001600020908051906020019061158f929190611fb0565b505050565b60008073ffffffffffffffffffffffffffffffffffffffff166002600084815260200190815260200160002060009054906101000a900473ffffffffffffffffffffffffffffffffffffffff1673ffffffffffffffffffffffffffffffffffffffff1614159050919050565b8273ffffffffffffffffffffffffffffffffffffffff166116208261077d565b73ffffffffffffffffffffffffffffffffffffffff1614611676576040517f08c379a000000000000000000000000000000000000000000000000000000000815260040161166d906128c0565b60405180910390fd5b600073ffffffffffffffffffffffffffffffffffffffff168273ffffffffffffffffffffffffffffffffffffffff1614156116e6576040517f08c379a00000000000000000000000000000000000000000000000000000000081526004016116dd90612920565b60405180910390fd5b6116f1838383611b2b565b6116fc600082610dde565b6001600360008573ffffffffffffffffffffffffffffffffffffffff1673ffffffffffffffffffffffffffffffffffffffff168152602001908152602001600020600082825461174c9190612c0c565b925050819055506001600360008473ffffffffffffffffffffffffffffffffffffffff1673ffffffffffffffffffffffffffffffffffffffff16815260200190815260200160002060008282546117a39190612b85565b92505081905550816002600083815260200190815260200160002060006101000a81548173ffffffffffffffffffffffffffffffffffffffff021916908373ffffffffffffffffffffffffffffffffffffffff160217905550808273ffffffffffffffffffffffffffffffffffffffff168473ffffffffffffffffffffffffffffffffffffffff167fddf252ad1be2c89b69c2b068fc378daa952ba7f163c4a11628f55a4df523b3ef60405160405180910390a4611862838383611b30565b505050565b61187081611b35565b600060066000838152602001908152602001600020805461189090612cf6565b9050146118b7576006600082815260200190815260200160002060006118b69190612036565b5b50565b60006118db8473ffffffffffffffffffffffffffffffffffffffff16611c52565b15611a44578373ffffffffffffffffffffffffffffffffffffffff1663150b7a02611904610dd6565b8786866040518563ffffffff1660e01b815260040161192694939291906127f7565b602060405180830381600087803b15801561194057600080fd5b505af192505050801561197157506040513d601f19601f8201168201806040525081019061196e919061243b565b60015b6119f4573d80600081146119a1576040519150601f19603f3d011682016040523d82523d6000602084013e6119a6565b606091505b506000815114156119ec576040517f08c379a00000000000000000000000000000000000000000000000000000000081526004016119e390612880565b60405180910390fd5b805181602001fd5b63150b7a0260e01b7bffffffffffffffffffffffffffffffffffffffffffffffffffffffff1916817bffffffffffffffffffffffffffffffffffffffffffffffffffffffff191614915050611a49565b600190505b949350505050565b606060405180602001604052806000815250905090565b6060611a7382610d8b565b6000611a7d611a51565b90506000815111611a9d5760405180602001604052806000815250611ac8565b80611aa784611c75565b604051602001611ab89291906127b8565b6040516020818303038152906040525b915050919050565b611ada8383611dd6565b611ae760008484846118ba565b611b26576040517f08c379a0000000000000000000000000000000000000000000000000000000008152600401611b1d90612880565b60405180910390fd5b505050565b505050565b505050565b6000611b408261077d565b9050611b4e81600084611b2b565b611b59600083610dde565b6001600360008373ffffffffffffffffffffffffffffffffffffffff1673ffffffffffffffffffffffffffffffffffffffff1681526020019081526020016000206000828254611ba99190612c0c565b925050819055506002600083815260200190815260200160002060006101000a81549073ffffffffffffffffffffffffffffffffffffffff021916905581600073ffffffffffffffffffffffffffffffffffffffff168273ffffffffffffffffffffffffffffffffffffffff167fddf252ad1be2c89b69c2b068fc378daa952ba7f163c4a11628f55a4df523b3ef60405160405180910390a4611c4e81600084611b30565b5050565b6000808273ffffffffffffffffffffffffffffffffffffffff163b119050919050565b60606000821415611cbd576040518060400160405280600181526020017f30000000000000000000000000000000000000000000000000000000000000008152509050611dd1565b600082905060005b60008214611cef578080611cd890612d59565b915050600a82611ce89190612bdb565b9150611cc5565b60008167ffffffffffffffff811115611d0b57611d0a612e8f565b5b6040519080825280601f01601f191660200182016040528015611d3d5781602001600182028036833780820191505090505b5090505b60008514611dca57600182611d569190612c0c565b9150600a85611d659190612da2565b6030611d719190612b85565b60f81b818381518110611d8757611d86612e60565b5b60200101907effffffffffffffffffffffffffffffffffffffffffffffffffffffffffffff1916908160001a905350600a85611dc39190612bdb565b9450611d41565b8093505050505b919050565b600073ffffffffffffffffffffffffffffffffffffffff168273ffffffffffffffffffffffffffffffffffffffff161415611e46576040517f08c379a0000000000000000000000000000000000000000000000000000000008152600401611e3d906129c0565b60405180910390fd5b611e4f81611594565b15611e8f576040517f08c379a0000000000000000000000000000000000000000000000000000000008152600401611e8690612900565b60405180910390fd5b611e9b60008383611b2b565b6001600360008473ffffffffffffffffffffffffffffffffffffffff1673ffffffffffffffffffffffffffffffffffffffff1681526020019081526020016000206000828254611eeb9190612b85565b92505081905550816002600083815260200190815260200160002060006101000a81548173ffffffffffffffffffffffffffffffffffffffff021916908373ffffffffffffffffffffffffffffffffffffffff160217905550808273ffffffffffffffffffffffffffffffffffffffff16600073ffffffffffffffffffffffffffffffffffffffff167fddf252ad1be2c89b69c2b068fc378daa952ba7f163c4a11628f55a4df523b3ef60405160405180910390a4611fac60008383611b30565b5050565b828054611fbc90612cf6565b90600052602060002090601f016020900481019282611fde5760008555612025565b82601f10611ff757805160ff1916838001178555612025565b82800160010185558215612025579182015b82811115612024578251825591602001919060010190612009565b5b5090506120329190612076565b5090565b50805461204290612cf6565b6000825580601f106120545750612073565b601f0160209004906000526020600020908101906120729190612076565b5b50565b5b8082111561208f576000816000905550600101612077565b5090565b60006120a66120a184612ae0565b612abb565b9050828152602081018484840111156120c2576120c1612ec3565b5b6120cd848285612cb4565b509392505050565b60006120e86120e384612b11565b612abb565b90508281526020810184848401111561210457612103612ec3565b5b61210f848285612cb4565b509392505050565b6000813590506121268161333e565b92915050565b60008135905061213b81613355565b92915050565b6000813590506121508161336c565b92915050565b6000815190506121658161336c565b92915050565b600082601f8301126121805761217f612ebe565b5b8135612190848260208601612093565b91505092915050565b600082601f8301126121ae576121ad612ebe565b5b81356121be8482602086016120d5565b91505092915050565b6000813590506121d681613383565b92915050565b6000602082840312156121f2576121f1612ecd565b5b600061220084828501612117565b91505092915050565b600080604083850312156122205761221f612ecd565b5b600061222e85828601612117565b925050602061223f85828601612117565b9150509250929050565b60008060006060848603121561226257612261612ecd565b5b600061227086828701612117565b935050602061228186828701612117565b9250506040612292868287016121c7565b9150509250925092565b600080600080608085870312156122b6576122b5612ecd565b5b60006122c487828801612117565b94505060206122d587828801612117565b93505060406122e6878288016121c7565b925050606085013567ffffffffffffffff81111561230757612306612ec8565b5b6123138782880161216b565b91505092959194509250565b6000806040838503121561233657612335612ecd565b5b600061234485828601612117565b92505060206123558582860161212c565b9150509250929050565b6000806040838503121561237657612375612ecd565b5b600061238485828601612117565b9250506020612395858286016121c7565b9150509250929050565b6000806000606084860312156123b8576123b7612ecd565b5b60006123c686828701612117565b93505060206123d7868287016121c7565b925050604084013567ffffffffffffffff8111156123f8576123f7612ec8565b5b61240486828701612199565b9150509250925092565b60006020828403121561242457612423612ecd565b5b600061243284828501612141565b91505092915050565b60006020828403121561245157612450612ecd565b5b600061245f84828501612156565b91505092915050565b60006020828403121561247e5761247d612ecd565b5b600061248c848285016121c7565b91505092915050565b61249e81612c40565b82525050565b6124ad81612c52565b82525050565b60006124be82612b42565b6124c88185612b58565b93506124d8818560208601612cc3565b6124e181612ed2565b840191505092915050565b60006124f782612b4d565b6125018185612b69565b9350612511818560208601612cc3565b61251a81612ed2565b840191505092915050565b600061253082612b4d565b61253a8185612b7a565b935061254a818560208601612cc3565b80840191505092915050565b6000612563603283612b69565b915061256e82612ee3565b604082019050919050565b6000612586602683612b69565b915061259182612f32565b604082019050919050565b60006125a9602583612b69565b91506125b482612f81565b604082019050919050565b60006125cc602f83612b69565b91506125d782612fd0565b604082019050919050565b60006125ef601c83612b69565b91506125fa8261301f565b602082019050919050565b6000612612602483612b69565b915061261d82613048565b604082019050919050565b6000612635601983612b69565b915061264082613097565b602082019050919050565b6000612658602983612b69565b9150612663826130c0565b604082019050919050565b600061267b602e83612b69565b91506126868261310f565b604082019050919050565b600061269e603e83612b69565b91506126a98261315e565b604082019050919050565b60006126c1602083612b69565b91506126cc826131ad565b602082019050919050565b60006126e4602083612b69565b91506126ef826131d6565b602082019050919050565b6000612707602683612b69565b9150612712826131ff565b604082019050919050565b600061272a601883612b69565b91506127358261324e565b602082019050919050565b600061274d602183612b69565b915061275882613277565b604082019050919050565b6000612770602083612b69565b915061277b826132c6565b602082019050919050565b6000612793602e83612b69565b915061279e826132ef565b604082019050919050565b6127b281612caa565b82525050565b60006127c48285612525565b91506127d08284612525565b91508190509392505050565b60006020820190506127f16000830184612495565b92915050565b600060808201905061280c6000830187612495565b6128196020830186612495565b61282660408301856127a9565b818103606083015261283881846124b3565b905095945050505050565b600060208201905061285860008301846124a4565b92915050565b6000602082019050818103600083015261287881846124ec565b905092915050565b6000602082019050818103600083015261289981612556565b9050919050565b600060208201905081810360008301526128b981612579565b9050919050565b600060208201905081810360008301526128d98161259c565b9050919050565b600060208201905081810360008301526128f9816125bf565b9050919050565b60006020820190508181036000830152612919816125e2565b9050919050565b6000602082019050818103600083015261293981612605565b9050919050565b6000602082019050818103600083015261295981612628565b9050919050565b600060208201905081810360008301526129798161264b565b9050919050565b600060208201905081810360008301526129998161266e565b9050919050565b600060208201905081810360008301526129b981612691565b9050919050565b600060208201905081810360008301526129d9816126b4565b9050919050565b600060208201905081810360008301526129f9816126d7565b9050919050565b60006020820190508181036000830152612a19816126fa565b9050919050565b60006020820190508181036000830152612a398161271d565b9050919050565b60006020820190508181036000830152612a5981612740565b9050919050565b60006020820190508181036000830152612a7981612763565b9050919050565b60006020820190508181036000830152612a9981612786565b9050919050565b6000602082019050612ab560008301846127a9565b92915050565b6000612ac5612ad6565b9050612ad18282612d28565b919050565b6000604051905090565b600067ffffffffffffffff821115612afb57612afa612e8f565b5b612b0482612ed2565b9050602081019050919050565b600067ffffffffffffffff821115612b2c57612b2b612e8f565b5b612b3582612ed2565b9050602081019050919050565b600081519050919050565b600081519050919050565b600082825260208201905092915050565b600082825260208201905092915050565b600081905092915050565b6000612b9082612caa565b9150612b9b83612caa565b9250827fffffffffffffffffffffffffffffffffffffffffffffffffffffffffffffffff03821115612bd057612bcf612dd3565b5b828201905092915050565b6000612be682612caa565b9150612bf183612caa565b925082612c0157612c00612e02565b5b828204905092915050565b6000612c1782612caa565b9150612c2283612caa565b925082821015612c3557612c34612dd3565b5b828203905092915050565b6000612c4b82612c8a565b9050919050565b60008115159050919050565b60007fffffffff0000000000000000000000000000000000000000000000000000000082169050919050565b600073ffffffffffffffffffffffffffffffffffffffff82169050919050565b6000819050919050565b82818337600083830152505050565b60005b83811015612ce1578082015181840152602081019050612cc6565b83811115612cf0576000848401525b50505050565b60006002820490506001821680612d0e57607f821691505b60208210811415612d2257612d21612e31565b5b50919050565b612d3182612ed2565b810181811067ffffffffffffffff82111715612d5057612d4f612e8f565b5b80604052505050565b6000612d6482612caa565b91507fffffffffffffffffffffffffffffffffffffffffffffffffffffffffffffffff821415612d9757612d96612dd3565b5b600182019050919050565b6000612dad82612caa565b9150612db883612caa565b925082612dc857612dc7612e02565b5b828206905092915050565b7f4e487b7100000000000000000000000000000000000000000000000000000000600052601160045260246000fd5b7f4e487b7100000000000000000000000000000000000000000000000000000000600052601260045260246000fd5b7f4e487b7100000000000000000000000000000000000000000000000000000000600052602260045260246000fd5b7f4e487b7100000000000000000000000000000000000000000000000000000000600052603260045260246000fd5b7f4e487b7100000000000000000000000000000000000000000000000000000000600052604160045260246000fd5b600080fd5b600080fd5b600080fd5b600080fd5b6000601f19601f8301169050919050565b7f4552433732313a207472616e7366657220746f206e6f6e20455243373231526560008201527f63656976657220696d706c656d656e7465720000000000000000000000000000602082015250565b7f4f776e61626c653a206e6577206f776e657220697320746865207a65726f206160008201527f6464726573730000000000000000000000000000000000000000000000000000602082015250565b7f4552433732313a207472616e736665722066726f6d20696e636f72726563742060008201527f6f776e6572000000000000000000000000000000000000000000000000000000602082015250565b7f43616e6e6f7420736574206d61726b657420636f6e747261637420616464726560008201527f737320746f206164647265737320300000000000000000000000000000000000602082015250565b7f4552433732313a20746f6b656e20616c7265616479206d696e74656400000000600082015250565b7f4552433732313a207472616e7366657220746f20746865207a65726f2061646460008201527f7265737300000000000000000000000000000000000000000000000000000000602082015250565b7f4552433732313a20617070726f766520746f2063616c6c657200000000000000600082015250565b7f4552433732313a2061646472657373207a65726f206973206e6f74206120766160008201527f6c6964206f776e65720000000000000000000000000000000000000000000000602082015250565b7f45524337323155524953746f726167653a2055524920736574206f66206e6f6e60008201527f6578697374656e7420746f6b656e000000000000000000000000000000000000602082015250565b7f4552433732313a20617070726f76652063616c6c6572206973206e6f7420746f60008201527f6b656e206f776e6572206e6f7220617070726f76656420666f7220616c6c0000602082015250565b7f4552433732313a206d696e7420746f20746865207a65726f2061646472657373600082015250565b7f4f776e61626c653a2063616c6c6572206973206e6f7420746865206f776e6572600082015250565b7f4f6e6c79206d61726b657420636f6e7472616374206f72206f776e657220636160008201527f6e2063616c6c0000000000000000000000000000000000000000000000000000602082015250565b7f4552433732313a20696e76616c696420746f6b656e2049440000000000000000600082015250565b7f4552433732313a20617070726f76616c20746f2063757272656e74206f776e6560008201527f7200000000000000000000000000000000000000000000000000000000000000602082015250565b7f43616c6c6572206973206e6f74206f776e6572206e6f7220617070726f766564600082015250565b7f4552433732313a2063616c6c6572206973206e6f7420746f6b656e206f776e6560008201527f72206e6f7220617070726f766564000000000000000000000000000000000000602082015250565b61334781612c40565b811461335257600080fd5b50565b61335e81612c52565b811461336957600080fd5b50565b61337581612c5e565b811461338057600080fd5b50565b61338c81612caa565b811461339757600080fd5b5056fea26469706673582212209b4d8840da04a1343542ccb598b05d22c05b14c979be497d1a85cf6b5c6fc82d64736f6c63430008070033",
  "linkReferences": {},
  "deployedLinkReferences": {}
}