{
  "_format": "hh-sol-artifact-1",
  "contractName": "Market",
  "sourceName": "contracts/Market.sol",
  "abi": [
    {
      "anonymous": false,
      "inputs": [
        {
          "indexed": false,
          "internalType": "address",
          "name": "previousAdmin",
          "type": "address"
        },
        {
          "indexed": false,
          "internalType": "address",
          "name": "newAdmin",
          "type": "address"
        }
      ],
      "name": "AdminChanged",
      "type": "event"
    },
    {
      "anonymous": false,
      "inputs": [
        {
          "indexed": true,
          "internalType": "address",
          "name": "beacon",
          "type": "address"
        }
      ],
      "name": "BeaconUpgraded",
      "type": "event"
    },
    {
      "anonymous": false,
      "inputs": [
        {
          "indexed": false,
          "internalType": "uint8",
          "name": "version",
          "type": "uint8"
        }
      ],
      "name": "Initialized",
      "type": "event"
    },
    {
      "anonymous": false,
      "inputs": [
        {
          "indexed": true,
          "internalType": "address",
          "name": "previousOwner",
          "type": "address"
        },
        {
          "indexed": true,
          "internalType": "address",
          "name": "newOwner",
          "type": "address"
        }
      ],
      "name": "OwnershipTransferred",
      "type": "event"
    },
    {
      "anonymous": false,
      "inputs": [
        {
          "indexed": true,
          "internalType": "address",
          "name": "implementation",
          "type": "address"
        }
      ],
      "name": "Upgraded",
      "type": "event"
    },
    {
      "anonymous": false,
      "inputs": [
        {
          "indexed": true,
          "internalType": "uint256",
          "name": "id",
          "type": "uint256"
        }
      ],
      "name": "claimRevenueEvent",
      "type": "event"
    },
    {
      "anonymous": false,
      "inputs": [
        {
          "indexed": true,
          "internalType": "uint256",
          "name": "id",
          "type": "uint256"
        },
        {
          "indexed": false,
          "internalType": "address",
          "name": "organizer",
          "type": "address"
        },
        {
          "indexed": false,
          "internalType": "uint256",
          "name": "ticketPrice",
          "type": "uint256"
        },
        {
          "indexed": false,
          "internalType": "uint256",
          "name": "ticketRemain",
          "type": "uint256"
        },
        {
          "indexed": false,
          "internalType": "bool",
          "name": "isClosed",
          "type": "bool"
        },
        {
          "indexed": false,
          "internalType": "string",
          "name": "uri",
          "type": "string"
        },
        {
          "indexed": false,
          "internalType": "string",
          "name": "name",
          "type": "string"
        },
        {
          "indexed": false,
          "internalType": "string",
          "name": "description",
          "type": "string"
        }
      ],
      "name": "createEventEvent",
      "type": "event"
    },
    {
      "anonymous": false,
      "inputs": [
        {
          "indexed": true,
          "internalType": "uint256",
          "name": "id",
          "type": "uint256"
        },
        {
          "indexed": false,
          "internalType": "uint256",
          "name": "ticketRemain",
          "type": "uint256"
        },
        {
          "indexed": false,
          "internalType": "address",
          "name": "receiver",
          "type": "address"
        },
        {
          "indexed": false,
          "internalType": "uint256",
          "name": "revenue",
          "type": "uint256"
        }
      ],
      "name": "returnTicketEvent",
      "type": "event"
    },
    {
      "anonymous": false,
      "inputs": [
        {
          "indexed": true,
          "internalType": "uint256",
          "name": "id",
          "type": "uint256"
        },
        {
          "indexed": false,
          "internalType": "uint256",
          "name": "ticketRemain",
          "type": "uint256"
        },
        {
          "indexed": false,
          "internalType": "address",
          "name": "buyer",
          "type": "address"
        },
        {
          "indexed": false,
          "internalType": "uint256",
          "name": "revenue",
          "type": "uint256"
        }
      ],
      "name": "sellTicketEvent",
      "type": "event"
    },
    {
      "anonymous": false,
      "inputs": [
        {
          "indexed": true,
          "internalType": "address",
          "name": "to",
          "type": "address"
        },
        {
          "indexed": false,
          "internalType": "bool",
          "name": "value",
          "type": "bool"
        }
      ],
      "name": "setOrganizerEvent",
      "type": "event"
    },
    {
      "inputs": [
        {
          "internalType": "uint256",
          "name": "id",
          "type": "uint256"
        }
      ],
      "name": "buyTicket",
      "outputs": [],
      "stateMutability": "payable",
      "type": "function"
    },
    {
      "inputs": [
        {
          "internalType": "uint256",
          "name": "id",
          "type": "uint256"
        }
      ],
      "name": "claimRevenue",
      "outputs": [],
      "stateMutability": "payable",
      "type": "function"
    },
    {
      "inputs": [
        {
          "internalType": "uint256",
          "name": "id",
          "type": "uint256"
        }
      ],
      "name": "closeEvent",
      "outputs": [],
      "stateMutability": "nonpayable",
      "type": "function"
    },
    {
      "inputs": [
        {
          "internalType": "uint256",
          "name": "price",
          "type": "uint256"
        },
        {
          "internalType": "uint256",
          "name": "totalTicket",
          "type": "uint256"
        },
        {
          "internalType": "string",
          "name": "eventUri",
          "type": "string"
        },
        {
          "internalType": "string",
          "name": "name",
          "type": "string"
        },
        {
          "internalType": "string",
          "name": "description",
          "type": "string"
        }
      ],
      "name": "createEvent",
      "outputs": [],
      "stateMutability": "nonpayable",
      "type": "function"
    },
    {
      "inputs": [
        {
          "internalType": "uint256",
          "name": "id",
          "type": "uint256"
        }
      ],
      "name": "getRevenue",
      "outputs": [
        {
          "internalType": "uint256",
          "name": "revenue",
          "type": "uint256"
        }
      ],
      "stateMutability": "view",
      "type": "function"
    },
    {
      "inputs": [
        {
          "internalType": "uint256",
          "name": "id",
          "type": "uint256"
        }
      ],
      "name": "getTicketRemain",
      "outputs": [
        {
          "internalType": "uint256",
          "name": "ticketRemain",
          "type": "uint256"
        }
      ],
      "stateMutability": "view",
      "type": "function"
    },
    {
      "inputs": [],
      "name": "initialize",
      "outputs": [],
      "stateMutability": "nonpayable",
      "type": "function"
    },
    {
      "inputs": [],
      "name": "owner",
      "outputs": [
        {
          "internalType": "address",
          "name": "",
          "type": "address"
        }
      ],
      "stateMutability": "view",
      "type": "function"
    },
    {
      "inputs": [],
      "name": "proxiableUUID",
      "outputs": [
        {
          "internalType": "bytes32",
          "name": "",
          "type": "bytes32"
        }
      ],
      "stateMutability": "view",
      "type": "function"
    },
    {
      "inputs": [],
      "name": "renounceOwnership",
      "outputs": [],
      "stateMutability": "nonpayable",
      "type": "function"
    },
    {
      "inputs": [
        {
          "internalType": "uint256",
          "name": "id",
          "type": "uint256"
        },
        {
          "internalType": "uint256",
          "name": "tokenId",
          "type": "uint256"
        }
      ],
      "name": "returnTicket",
      "outputs": [],
      "stateMutability": "payable",
      "type": "function"
    },
    {
      "inputs": [
        {
          "internalType": "address",
          "name": "to",
          "type": "address"
        },
        {
          "internalType": "bool",
          "name": "value",
          "type": "bool"
        }
      ],
      "name": "setOrganizer",
      "outputs": [
        {
          "internalType": "bool",
          "name": "_value",
          "type": "bool"
        }
      ],
      "stateMutability": "nonpayable",
      "type": "function"
    },
    {
      "inputs": [
        {
          "internalType": "address",
          "name": "_addr",
          "type": "address"
        }
      ],
      "name": "setTokenAddress",
      "outputs": [],
      "stateMutability": "nonpayable",
      "type": "function"
    },
    {
      "inputs": [],
      "name": "tokenAddress",
      "outputs": [
        {
          "internalType": "address",
          "name": "",
          "type": "address"
        }
      ],
      "stateMutability": "view",
      "type": "function"
    },
    {
      "inputs": [
        {
          "internalType": "address",
          "name": "newOwner",
          "type": "address"
        }
      ],
      "name": "transferOwnership",
      "outputs": [],
      "stateMutability": "nonpayable",
      "type": "function"
    },
    {
      "inputs": [
        {
          "internalType": "address",
          "name": "newImplementation",
          "type": "address"
        }
      ],
      "name": "upgradeTo",
      "outputs": [],
      "stateMutability": "nonpayable",
      "type": "function"
    },
    {
      "inputs": [
        {
          "internalType": "address",
          "name": "newImplementation",
          "type": "address"
        },
        {
          "internalType": "bytes",
          "name": "data",
          "type": "bytes"
        }
      ],
      "name": "upgradeToAndCall",
      "outputs": [],
      "stateMutability": "payable",
      "type": "function"
    }
  ],
  "bytecode": "0x60a06040523073ffffffffffffffffffffffffffffffffffffffff1660809073ffffffffffffffffffffffffffffffffffffffff1660601b81525034801561004657600080fd5b5060805160601c6136e961008160003960008181610bee01528181610c7d01528181610e2f01528181610ebe0152610f6e01526136e96000f3fe6080604052600436106100fe5760003560e01c806352d1902d116100955780638da5cb5b116100645780638da5cb5b146102c15780639d76ea58146102ec578063a4745e9214610317578063cee7c0dc14610340578063f2fde38b1461037d576100fe565b806352d1902d1461024c57806367dd74ca14610277578063715018a6146102935780638129fc1c146102aa576100fe565b80632ee07c00116100d15780632ee07c00146101a15780633659cfe6146101ca5780633a189674146101f35780634f1ef28614610230576100fe565b80631cb536ed1461010357806324b3fce91461011f5780632623f6871461013b57806326a4e8d214610178575b600080fd5b61011d60048036038101906101189190612335565b6103a6565b005b61013960048036038101906101349190612362565b6105b7565b005b34801561014757600080fd5b50610162600480360381019061015d9190612335565b6109bf565b60405161016f9190612c49565b60405180910390f35b34801561018457600080fd5b5061019f600480360381019061019a9190612212565b6109e0565b005b3480156101ad57600080fd5b506101c860048036038101906101c39190612335565b610a2c565b005b3480156101d657600080fd5b506101f160048036038101906101ec9190612212565b610bec565b005b3480156101ff57600080fd5b5061021a6004803603810190610215919061226c565b610d75565b6040516102279190612956565b60405180910390f35b61024a600480360381019061024591906122ac565b610e2d565b005b34801561025857600080fd5b50610261610f6a565b60405161026e9190612971565b60405180910390f35b610291600480360381019061028c9190612335565b611023565b005b34801561029f57600080fd5b506102a8611355565b005b3480156102b657600080fd5b506102bf611369565b005b3480156102cd57600080fd5b506102d66114b7565b6040516102e39190612879565b60405180910390f35b3480156102f857600080fd5b506103016114e1565b60405161030e9190612879565b60405180910390f35b34801561032357600080fd5b5061033e600480360381019061033991906123a2565b611507565b005b34801561034c57600080fd5b5061036760048036038101906103629190612335565b611895565b6040516103749190612c49565b60405180910390f35b34801561038957600080fd5b506103a4600480360381019061039f9190612212565b6118b6565b005b60011515610102600083815260200190815260200160002060050160009054906101000a900460ff16151514610411576040517f08c379a000000000000000000000000000000000000000000000000000000000815260040161040890612b29565b60405180910390fd5b3373ffffffffffffffffffffffffffffffffffffffff16610102600083815260200190815260200160002060010160009054906101000a900473ffffffffffffffffffffffffffffffffffffffff1673ffffffffffffffffffffffffffffffffffffffff16146104b6576040517f08c379a00000000000000000000000000000000000000000000000000000000081526004016104ad90612a49565b60405180910390fd5b3373ffffffffffffffffffffffffffffffffffffffff166108fc6101026000848152602001908152602001600020600401549081150290604051600060405180830381858888f19350505050158015610513573d6000803e3d6000fd5b50600061010260008381526020019081526020016000206004018190555061010160003373ffffffffffffffffffffffffffffffffffffffff1673ffffffffffffffffffffffffffffffffffffffff168152602001908152602001600020600081548092919061058290612f31565b9190505550807f27a489d5f55ef03b98d522f8529ad3c1cbca52255f6e82e32fdc732aa2f0b70060405160405180910390a250565b61010060003373ffffffffffffffffffffffffffffffffffffffff1673ffffffffffffffffffffffffffffffffffffffff16815260200190815260200160002060009054906101000a900460ff1615610645576040517f08c379a000000000000000000000000000000000000000000000000000000000815260040161063c90612c29565b60405180910390fd5b610102600083815260200190815260200160002060050160009054906101000a900460ff16156106aa576040517f08c379a00000000000000000000000000000000000000000000000000000000081526004016106a190612a89565b60405180910390fd5b3373ffffffffffffffffffffffffffffffffffffffff1660fb60009054906101000a900473ffffffffffffffffffffffffffffffffffffffff1673ffffffffffffffffffffffffffffffffffffffff16636352211e836040518263ffffffff1660e01b815260040161071c9190612c49565b60206040518083038186803b15801561073457600080fd5b505afa158015610748573d6000803e3d6000fd5b505050506040513d601f19601f8201168201806040525081019061076c919061223f565b73ffffffffffffffffffffffffffffffffffffffff16146107c2576040517f08c379a00000000000000000000000000000000000000000000000000000000081526004016107b990612ba9565b60405180910390fd5b60fb60009054906101000a900473ffffffffffffffffffffffffffffffffffffffff1673ffffffffffffffffffffffffffffffffffffffff166342966c68826040518263ffffffff1660e01b815260040161081d9190612c49565b600060405180830381600087803b15801561083757600080fd5b505af115801561084b573d6000803e3d6000fd5b505050503373ffffffffffffffffffffffffffffffffffffffff166108fc6064604661010260008781526020019081526020016000206002015461088f9190612df0565b6108999190612dbf565b9081150290604051600060405180830381858888f193505050501580156108c4573d6000803e3d6000fd5b50606460466101026000858152602001908152602001600020600201546108eb9190612df0565b6108f59190612dbf565b6101026000848152602001908152602001600020600401600082825461091b9190612e4a565b9250508190555060016101026000848152602001908152602001600020600301600082825461094a9190612d69565b92505081905550817fba81dafdfcfed31e3abf1d35abefd58bb845437422b6cbbabbc2e35d64e3c74c610102600085815260200190815260200160002060030154336101026000878152602001908152602001600020600401546040516109b393929190612c64565b60405180910390a25050565b60006101026000838152602001908152602001600020600401549050919050565b6109e861193a565b8060fb60006101000a81548173ffffffffffffffffffffffffffffffffffffffff021916908373ffffffffffffffffffffffffffffffffffffffff16021790555050565b6001151560ff60003373ffffffffffffffffffffffffffffffffffffffff1673ffffffffffffffffffffffffffffffffffffffff16815260200190815260200160002060009054906101000a900460ff1615151480610abd57503373ffffffffffffffffffffffffffffffffffffffff16610aa56114b7565b73ffffffffffffffffffffffffffffffffffffffff16145b610afc576040517f08c379a0000000000000000000000000000000000000000000000000000000008152600401610af3906129e9565b60405180910390fd5b3373ffffffffffffffffffffffffffffffffffffffff16610102600083815260200190815260200160002060010160009054906101000a900473ffffffffffffffffffffffffffffffffffffffff1673ffffffffffffffffffffffffffffffffffffffff1614610ba1576040517f08c379a0000000000000000000000000000000000000000000000000000000008152600401610b98906129c9565b60405180910390fd5b6001610102600083815260200190815260200160002060050160006101000a81548160ff02191690831515021790555060fd6000815480929190610be490612f31565b919050555050565b7f000000000000000000000000000000000000000000000000000000000000000073ffffffffffffffffffffffffffffffffffffffff163073ffffffffffffffffffffffffffffffffffffffff161415610c7b576040517f08c379a0000000000000000000000000000000000000000000000000000000008152600401610c7290612a29565b60405180910390fd5b7f000000000000000000000000000000000000000000000000000000000000000073ffffffffffffffffffffffffffffffffffffffff16610cba6119b8565b73ffffffffffffffffffffffffffffffffffffffff1614610d10576040517f08c379a0000000000000000000000000000000000000000000000000000000008152600401610d0790612aa9565b60405180910390fd5b610d1981611a0f565b610d7281600067ffffffffffffffff811115610d3857610d37613094565b5b6040519080825280601f01601f191660200182016040528015610d6a5781602001600182028036833780820191505090505b506000611a1a565b50565b6000610d7f61193a565b8160ff60008573ffffffffffffffffffffffffffffffffffffffff1673ffffffffffffffffffffffffffffffffffffffff16815260200190815260200160002060006101000a81548160ff0219169083151502179055508273ffffffffffffffffffffffffffffffffffffffff167fe06467a981414ad7205ed9c9b6d3202e0abbc366ae35d00a0fd08b16dda9cc9b83604051610e1c9190612956565b60405180910390a281905092915050565b7f000000000000000000000000000000000000000000000000000000000000000073ffffffffffffffffffffffffffffffffffffffff163073ffffffffffffffffffffffffffffffffffffffff161415610ebc576040517f08c379a0000000000000000000000000000000000000000000000000000000008152600401610eb390612a29565b60405180910390fd5b7f000000000000000000000000000000000000000000000000000000000000000073ffffffffffffffffffffffffffffffffffffffff16610efb6119b8565b73ffffffffffffffffffffffffffffffffffffffff1614610f51576040517f08c379a0000000000000000000000000000000000000000000000000000000008152600401610f4890612aa9565b60405180910390fd5b610f5a82611a0f565b610f6682826001611a1a565b5050565b60007f000000000000000000000000000000000000000000000000000000000000000073ffffffffffffffffffffffffffffffffffffffff163073ffffffffffffffffffffffffffffffffffffffff1614610ffa576040517f08c379a0000000000000000000000000000000000000000000000000000000008152600401610ff190612ac9565b60405180910390fd5b7f360894a13ba1a3210667c828492db98dca3e2076cc3735a920a3ca505d382bbc60001b905090565b61010060003373ffffffffffffffffffffffffffffffffffffffff1673ffffffffffffffffffffffffffffffffffffffff16815260200190815260200160002060009054906101000a900460ff16156110b1576040517f08c379a00000000000000000000000000000000000000000000000000000000081526004016110a890612c29565b60405180910390fd5b610102600082815260200190815260200160002060050160009054906101000a900460ff1615611116576040517f08c379a000000000000000000000000000000000000000000000000000000000815260040161110d90612a89565b60405180910390fd5b60016101026000838152602001908152602001600020600301541015611171576040517f08c379a000000000000000000000000000000000000000000000000000000000815260040161116890612a69565b60405180910390fd5b61010260008281526020019081526020016000206002015434146111ca576040517f08c379a00000000000000000000000000000000000000000000000000000000081526004016111c190612b49565b60405180910390fd5b34610102600083815260200190815260200160002060040160008282546111f19190612d69565b925050819055506001610102600083815260200190815260200160002060030160008282546112209190612e4a565b9250508190555060fe600081548092919061123a90612fbe565b919050555060fb60009054906101000a900473ffffffffffffffffffffffffffffffffffffffff1673ffffffffffffffffffffffffffffffffffffffff1663cd279c7c3360fe5461010260008681526020019081526020016000206006016040518463ffffffff1660e01b81526004016112b693929190612894565b600060405180830381600087803b1580156112d057600080fd5b505af11580156112e4573d6000803e3d6000fd5b50505050807fc0d0225970e26cdd80a4c2e2f06aae73e5b69145d0203380fd162130f7277fa36101026000848152602001908152602001600020600301543361010260008681526020019081526020016000206004015460405161134a93929190612c64565b60405180910390a250565b61135d61193a565b6113676000611b97565b565b60008060019054906101000a900460ff1615905080801561139a5750600160008054906101000a900460ff1660ff16105b806113c757506113a930611c5d565b1580156113c65750600160008054906101000a900460ff1660ff16145b5b611406576040517f08c379a00000000000000000000000000000000000000000000000000000000081526004016113fd90612b09565b60405180910390fd5b60016000806101000a81548160ff021916908360ff1602179055508015611443576001600060016101000a81548160ff0219169083151502179055505b61144b611c80565b611453611cd9565b600160fe8190555080156114b45760008060016101000a81548160ff0219169083151502179055507f7f26b83ff96e1f2b6a682f133852f6798a09c465da95921460cefb384740249860016040516114ab919061298c565b60405180910390a15b50565b6000609760009054906101000a900473ffffffffffffffffffffffffffffffffffffffff16905090565b60fb60009054906101000a900473ffffffffffffffffffffffffffffffffffffffff1681565b6001151560ff60003373ffffffffffffffffffffffffffffffffffffffff1673ffffffffffffffffffffffffffffffffffffffff16815260200190815260200160002060009054906101000a900460ff161515148061159857503373ffffffffffffffffffffffffffffffffffffffff166115806114b7565b73ffffffffffffffffffffffffffffffffffffffff16145b6115d7576040517f08c379a00000000000000000000000000000000000000000000000000000000081526004016115ce906129e9565b60405180910390fd5b61010060003373ffffffffffffffffffffffffffffffffffffffff1673ffffffffffffffffffffffffffffffffffffffff16815260200190815260200160002060009054906101000a900460ff1615611665576040517f08c379a000000000000000000000000000000000000000000000000000000000815260040161165c90612c29565b60405180910390fd5b60fc600081548092919061167890612fbe565b919050555060405180610120016040528060fc5481526020013373ffffffffffffffffffffffffffffffffffffffff1681526020018681526020018581526020016000815260200160001515815260200184815260200183815260200182815250610102600060fc5481526020019081526020016000206000820151816000015560208201518160010160006101000a81548173ffffffffffffffffffffffffffffffffffffffff021916908373ffffffffffffffffffffffffffffffffffffffff16021790555060408201518160020155606082015181600301556080820151816004015560a08201518160050160006101000a81548160ff02191690831515021790555060c082015181600601908051906020019061179a929190612026565b5060e08201518160070190805190602001906117b7929190612026565b506101008201518160080190805190602001906117d5929190612026565b5090505060fd60008154809291906117ec90612fbe565b919050555061010160003373ffffffffffffffffffffffffffffffffffffffff1673ffffffffffffffffffffffffffffffffffffffff168152602001908152602001600020600081548092919061184290612fbe565b919050555060fc547f5bdccb065767fbe68f55b84c89e37003e4502319d4e62a257dc62231046db764338787600088888860405161188697969594939291906128d2565b60405180910390a25050505050565b60006101026000838152602001908152602001600020600301549050919050565b6118be61193a565b600073ffffffffffffffffffffffffffffffffffffffff168173ffffffffffffffffffffffffffffffffffffffff16141561192e576040517f08c379a000000000000000000000000000000000000000000000000000000000815260040161192590612a09565b60405180910390fd5b61193781611b97565b50565b611942611d2a565b73ffffffffffffffffffffffffffffffffffffffff166119606114b7565b73ffffffffffffffffffffffffffffffffffffffff16146119b6576040517f08c379a00000000000000000000000000000000000000000000000000000000081526004016119ad90612bc9565b60405180910390fd5b565b60006119e67f360894a13ba1a3210667c828492db98dca3e2076cc3735a920a3ca505d382bbc60001b611d32565b60000160009054906101000a900473ffffffffffffffffffffffffffffffffffffffff16905090565b611a1761193a565b50565b611a467f4910fdfa16fed3260ed0e7147f7cc6da11a60208b5b9406d12a635614ffd914360001b611d3c565b60000160009054906101000a900460ff1615611a6a57611a6583611d46565b611b92565b8273ffffffffffffffffffffffffffffffffffffffff166352d1902d6040518163ffffffff1660e01b815260040160206040518083038186803b158015611ab057600080fd5b505afa925050508015611ae157506040513d601f19601f82011682018060405250810190611ade9190612308565b60015b611b20576040517f08c379a0000000000000000000000000000000000000000000000000000000008152600401611b1790612b69565b60405180910390fd5b7f360894a13ba1a3210667c828492db98dca3e2076cc3735a920a3ca505d382bbc60001b8114611b85576040517f08c379a0000000000000000000000000000000000000000000000000000000008152600401611b7c90612ae9565b60405180910390fd5b50611b91838383611dff565b5b505050565b6000609760009054906101000a900473ffffffffffffffffffffffffffffffffffffffff16905081609760006101000a81548173ffffffffffffffffffffffffffffffffffffffff021916908373ffffffffffffffffffffffffffffffffffffffff1602179055508173ffffffffffffffffffffffffffffffffffffffff168173ffffffffffffffffffffffffffffffffffffffff167f8be0079c531659141344cd1fd0a4f28419497f9722a3daafe3b4186f6b6457e060405160405180910390a35050565b6000808273ffffffffffffffffffffffffffffffffffffffff163b119050919050565b600060019054906101000a900460ff16611ccf576040517f08c379a0000000000000000000000000000000000000000000000000000000008152600401611cc690612c09565b60405180910390fd5b611cd7611e2b565b565b600060019054906101000a900460ff16611d28576040517f08c379a0000000000000000000000000000000000000000000000000000000008152600401611d1f90612c09565b60405180910390fd5b565b600033905090565b6000819050919050565b6000819050919050565b611d4f81611c5d565b611d8e576040517f08c379a0000000000000000000000000000000000000000000000000000000008152600401611d8590612b89565b60405180910390fd5b80611dbb7f360894a13ba1a3210667c828492db98dca3e2076cc3735a920a3ca505d382bbc60001b611d32565b60000160006101000a81548173ffffffffffffffffffffffffffffffffffffffff021916908373ffffffffffffffffffffffffffffffffffffffff16021790555050565b611e0883611e8c565b600082511180611e155750805b15611e2657611e248383611edb565b505b505050565b600060019054906101000a900460ff16611e7a576040517f08c379a0000000000000000000000000000000000000000000000000000000008152600401611e7190612c09565b60405180910390fd5b611e8a611e85611d2a565b611b97565b565b611e9581611d46565b8073ffffffffffffffffffffffffffffffffffffffff167fbc7cd75a20ee27fd9adebab32041f755214dbc6bffa90cc0225b39da2e5c2d3b60405160405180910390a250565b6060611ee683611c5d565b611f25576040517f08c379a0000000000000000000000000000000000000000000000000000000008152600401611f1c90612be9565b60405180910390fd5b6000808473ffffffffffffffffffffffffffffffffffffffff1684604051611f4d9190612862565b600060405180830381855af49150503d8060008114611f88576040519150601f19603f3d011682016040523d82523d6000602084013e611f8d565b606091505b5091509150611fb5828260405180606001604052806027815260200161368d60279139611fbf565b9250505092915050565b60608315611fcf5782905061201f565b600083511115611fe25782518084602001fd5b816040517f08c379a000000000000000000000000000000000000000000000000000000000815260040161201691906129a7565b60405180910390fd5b9392505050565b82805461203290612f5b565b90600052602060002090601f016020900481019282612054576000855561209b565b82601f1061206d57805160ff191683800117855561209b565b8280016001018555821561209b579182015b8281111561209a57825182559160200191906001019061207f565b5b5090506120a891906120ac565b5090565b5b808211156120c55760008160009055506001016120ad565b5090565b60006120dc6120d784612cc0565b612c9b565b9050828152602081018484840111156120f8576120f76130c8565b5b612103848285612eef565b509392505050565b600061211e61211984612cf1565b612c9b565b90508281526020810184848401111561213a576121396130c8565b5b612145848285612eef565b509392505050565b60008135905061215c81613630565b92915050565b60008151905061217181613630565b92915050565b60008135905061218681613647565b92915050565b60008151905061219b8161365e565b92915050565b600082601f8301126121b6576121b56130c3565b5b81356121c68482602086016120c9565b91505092915050565b600082601f8301126121e4576121e36130c3565b5b81356121f484826020860161210b565b91505092915050565b60008135905061220c81613675565b92915050565b600060208284031215612228576122276130d2565b5b60006122368482850161214d565b91505092915050565b600060208284031215612255576122546130d2565b5b600061226384828501612162565b91505092915050565b60008060408385031215612283576122826130d2565b5b60006122918582860161214d565b92505060206122a285828601612177565b9150509250929050565b600080604083850312156122c3576122c26130d2565b5b60006122d18582860161214d565b925050602083013567ffffffffffffffff8111156122f2576122f16130cd565b5b6122fe858286016121a1565b9150509250929050565b60006020828403121561231e5761231d6130d2565b5b600061232c8482850161218c565b91505092915050565b60006020828403121561234b5761234a6130d2565b5b6000612359848285016121fd565b91505092915050565b60008060408385031215612379576123786130d2565b5b6000612387858286016121fd565b9250506020612398858286016121fd565b9150509250929050565b600080600080600060a086880312156123be576123bd6130d2565b5b60006123cc888289016121fd565b95505060206123dd888289016121fd565b945050604086013567ffffffffffffffff8111156123fe576123fd6130cd565b5b61240a888289016121cf565b935050606086013567ffffffffffffffff81111561242b5761242a6130cd565b5b612437888289016121cf565b925050608086013567ffffffffffffffff811115612458576124576130cd565b5b612464888289016121cf565b9150509295509295909350565b61247a81612e7e565b82525050565b61248981612e90565b82525050565b61249881612e9c565b82525050565b60006124a982612d37565b6124b38185612d4d565b93506124c3818560208601612efe565b80840191505092915050565b6124d881612edd565b82525050565b60006124e982612d42565b6124f38185612d58565b9350612503818560208601612efe565b61250c816130d7565b840191505092915050565b6000815461252481612f5b565b61252e8186612d58565b94506001821660008114612549576001811461255b5761258e565b60ff198316865260208601935061258e565b61256485612d22565b60005b8381101561258657815481890152600182019150602081019050612567565b808801955050505b50505092915050565b60006125a4602683612d58565b91506125af826130e8565b604082019050919050565b60006125c7601983612d58565b91506125d282613137565b602082019050919050565b60006125ea602683612d58565b91506125f582613160565b604082019050919050565b600061260d602c83612d58565b9150612618826131af565b604082019050919050565b6000612630602d83612d58565b915061263b826131fe565b604082019050919050565b6000612653601283612d58565b915061265e8261324d565b602082019050919050565b6000612676600c83612d58565b915061268182613276565b602082019050919050565b6000612699602c83612d58565b91506126a48261329f565b604082019050919050565b60006126bc603883612d58565b91506126c7826132ee565b604082019050919050565b60006126df602983612d58565b91506126ea8261333d565b604082019050919050565b6000612702602e83612d58565b915061270d8261338c565b604082019050919050565b6000612725601283612d58565b9150612730826133db565b602082019050919050565b6000612748602a83612d58565b915061275382613404565b604082019050919050565b600061276b602e83612d58565b915061277682613453565b604082019050919050565b600061278e602d83612d58565b9150612799826134a2565b604082019050919050565b60006127b1602e83612d58565b91506127bc826134f1565b604082019050919050565b60006127d4602083612d58565b91506127df82613540565b602082019050919050565b60006127f7602683612d58565b915061280282613569565b604082019050919050565b600061281a602b83612d58565b9150612825826135b8565b604082019050919050565b600061283d600f83612d58565b915061284882613607565b602082019050919050565b61285c81612ec6565b82525050565b600061286e828461249e565b915081905092915050565b600060208201905061288e6000830184612471565b92915050565b60006060820190506128a96000830186612471565b6128b66020830185612853565b81810360408301526128c88184612517565b9050949350505050565b600060e0820190506128e7600083018a612471565b6128f46020830189612853565b6129016040830188612853565b61290e6060830187612480565b818103608083015261292081866124de565b905081810360a083015261293481856124de565b905081810360c083015261294881846124de565b905098975050505050505050565b600060208201905061296b6000830184612480565b92915050565b6000602082019050612986600083018461248f565b92915050565b60006020820190506129a160008301846124cf565b92915050565b600060208201905081810360008301526129c181846124de565b905092915050565b600060208201905081810360008301526129e281612597565b9050919050565b60006020820190508181036000830152612a02816125ba565b9050919050565b60006020820190508181036000830152612a22816125dd565b9050919050565b60006020820190508181036000830152612a4281612600565b9050919050565b60006020820190508181036000830152612a6281612623565b9050919050565b60006020820190508181036000830152612a8281612646565b9050919050565b60006020820190508181036000830152612aa281612669565b9050919050565b60006020820190508181036000830152612ac28161268c565b9050919050565b60006020820190508181036000830152612ae2816126af565b9050919050565b60006020820190508181036000830152612b02816126d2565b9050919050565b60006020820190508181036000830152612b22816126f5565b9050919050565b60006020820190508181036000830152612b4281612718565b9050919050565b60006020820190508181036000830152612b628161273b565b9050919050565b60006020820190508181036000830152612b828161275e565b9050919050565b60006020820190508181036000830152612ba281612781565b9050919050565b60006020820190508181036000830152612bc2816127a4565b9050919050565b60006020820190508181036000830152612be2816127c7565b9050919050565b60006020820190508181036000830152612c02816127ea565b9050919050565b60006020820190508181036000830152612c228161280d565b9050919050565b60006020820190508181036000830152612c4281612830565b9050919050565b6000602082019050612c5e6000830184612853565b92915050565b6000606082019050612c796000830186612853565b612c866020830185612471565b612c936040830184612853565b949350505050565b6000612ca5612cb6565b9050612cb18282612f8d565b919050565b6000604051905090565b600067ffffffffffffffff821115612cdb57612cda613094565b5b612ce4826130d7565b9050602081019050919050565b600067ffffffffffffffff821115612d0c57612d0b613094565b5b612d15826130d7565b9050602081019050919050565b60008190508160005260206000209050919050565b600081519050919050565b600081519050919050565b600081905092915050565b600082825260208201905092915050565b6000612d7482612ec6565b9150612d7f83612ec6565b9250827fffffffffffffffffffffffffffffffffffffffffffffffffffffffffffffffff03821115612db457612db3613007565b5b828201905092915050565b6000612dca82612ec6565b9150612dd583612ec6565b925082612de557612de4613036565b5b828204905092915050565b6000612dfb82612ec6565b9150612e0683612ec6565b9250817fffffffffffffffffffffffffffffffffffffffffffffffffffffffffffffffff0483118215151615612e3f57612e3e613007565b5b828202905092915050565b6000612e5582612ec6565b9150612e6083612ec6565b925082821015612e7357612e72613007565b5b828203905092915050565b6000612e8982612ea6565b9050919050565b60008115159050919050565b6000819050919050565b600073ffffffffffffffffffffffffffffffffffffffff82169050919050565b6000819050919050565b600060ff82169050919050565b6000612ee882612ed0565b9050919050565b82818337600083830152505050565b60005b83811015612f1c578082015181840152602081019050612f01565b83811115612f2b576000848401525b50505050565b6000612f3c82612ec6565b91506000821415612f5057612f4f613007565b5b600182039050919050565b60006002820490506001821680612f7357607f821691505b60208210811415612f8757612f86613065565b5b50919050565b612f96826130d7565b810181811067ffffffffffffffff82111715612fb557612fb4613094565b5b80604052505050565b6000612fc982612ec6565b91507fffffffffffffffffffffffffffffffffffffffffffffffffffffffffffffffff821415612ffc57612ffb613007565b5b600182019050919050565b7f4e487b7100000000000000000000000000000000000000000000000000000000600052601160045260246000fd5b7f4e487b7100000000000000000000000000000000000000000000000000000000600052601260045260246000fd5b7f4e487b7100000000000000000000000000000000000000000000000000000000600052602260045260246000fd5b7f4e487b7100000000000000000000000000000000000000000000000000000000600052604160045260246000fd5b600080fd5b600080fd5b600080fd5b600080fd5b6000601f19601f8301169050919050565b7f596f7520617265206e6f7420746865206f7267616e697a6572206f662074686560008201527f206576656e740000000000000000000000000000000000000000000000000000602082015250565b7f596f7520617265206e6f7420616e206f7267616e697a65722100000000000000600082015250565b7f4f776e61626c653a206e6577206f776e657220697320746865207a65726f206160008201527f6464726573730000000000000000000000000000000000000000000000000000602082015250565b7f46756e6374696f6e206d7573742062652063616c6c6564207468726f7567682060008201527f64656c656761746563616c6c0000000000000000000000000000000000000000602082015250565b7f596f752063616e206e6f7420636c61696d20726576656e7565206f66206f746860008201527f6572206f7267616e697a65727300000000000000000000000000000000000000602082015250565b7f4e6f7420656e6f756768207469636b6574730000000000000000000000000000600082015250565b7f4576656e7420636c6f7365640000000000000000000000000000000000000000600082015250565b7f46756e6374696f6e206d7573742062652063616c6c6564207468726f7567682060008201527f6163746976652070726f78790000000000000000000000000000000000000000602082015250565b7f555550535570677261646561626c653a206d757374206e6f742062652063616c60008201527f6c6564207468726f7567682064656c656761746563616c6c0000000000000000602082015250565b7f45524331393637557067726164653a20756e737570706f727465642070726f7860008201527f6961626c65555549440000000000000000000000000000000000000000000000602082015250565b7f496e697469616c697a61626c653a20636f6e747261637420697320616c72656160008201527f647920696e697469616c697a6564000000000000000000000000000000000000602082015250565b7f4576656e74206973206e6f7420656e6465640000000000000000000000000000600082015250565b7f53656e742076616c7565206973206e6f7420657175616c20746f20746865207460008201527f6f74616c20707269636500000000000000000000000000000000000000000000602082015250565b7f45524331393637557067726164653a206e657720696d706c656d656e7461746960008201527f6f6e206973206e6f742055555053000000000000000000000000000000000000602082015250565b7f455243313936373a206e657720696d706c656d656e746174696f6e206973206e60008201527f6f74206120636f6e747261637400000000000000000000000000000000000000602082015250565b7f596f752063616e6e6f742072657475726e207469636b6574732074686174207960008201527f6f7520646f206e6f742068617665000000000000000000000000000000000000602082015250565b7f4f776e61626c653a2063616c6c6572206973206e6f7420746865206f776e6572600082015250565b7f416464726573733a2064656c65676174652063616c6c20746f206e6f6e2d636f60008201527f6e74726163740000000000000000000000000000000000000000000000000000602082015250565b7f496e697469616c697a61626c653a20636f6e7472616374206973206e6f74206960008201527f6e697469616c697a696e67000000000000000000000000000000000000000000602082015250565b7f596f752061726520626c6f636b65640000000000000000000000000000000000600082015250565b61363981612e7e565b811461364457600080fd5b50565b61365081612e90565b811461365b57600080fd5b50565b61366781612e9c565b811461367257600080fd5b50565b61367e81612ec6565b811461368957600080fd5b5056fe416464726573733a206c6f772d6c6576656c2064656c65676174652063616c6c206661696c6564a2646970667358221220b43048a9027e43ba8473fe1d54c69c0c07f65fb7520a3f7948983146af917dd964736f6c63430008070033",
  "linkReferences": {},
  "deployedLinkReferences": {}
}